:020000040800F2
:10000000600A0020010100080F1300084D120008CB
:100010000D130008C5080008D113000800000000F7
:100020000000000000000000000000003313000882
:10003000C70800080000000031130008351300084D
:100040001B0100081B0100081B0100081B01000820
:100050001B0100081B0100081B0100081B01000810
:100060001B0100081B0100081B0100081B01000800
:100070001B0100081B0100081B0100081B010008F0
:100080001B0100081B0100081B0100081B010008E0
:100090001B0100081B0100081B0100081B010008D0
:1000A0001B0100081B0100081B0100081B010008C0
:1000B0001B0100081B0100081B0100081B010008B0
:1000C0001B0100081B0100081B0100081B010008A0
:1000D0001B0100081B0100081B0100081B01000890
:1000E0001B0100081B0100081B010008DFF80CD0F1
:1000F00000F0AAFB00480047D11D0008600A00205C
:100100000648804706480047FEE7FEE7FEE7FEE7B1
:10011000FEE7FEE7FEE7FEE7FEE7FEE789130008DD
:10012000ED000008202A04DB203A21FA02F0002129
:10013000704721FA02F3D040C2F1200291400843F7
:1001400019467047D2B201E000F8012B491EFBD2DC
:1001500070470022F6E710B513460A4604461946D2
:10016000FFF7F0FF204610BDF0B480EA0102D40F83
:100170004200B2EB410F02D20246084611464A0045
:1001800042D0C30DDDB2C1F3C752AD1A202D35DA0E
:10019000C1F3160141F4000204B15242C5F1200638
:1001A00002FA06F12A411044B3EBD05F23D0C4B168
:1001B000012DA0EBC35009DCF0BC4FF0004202EA75
:1001C000C352DBB200F5000000F061BA400000F15C
:1001D000807000EBC350A0F1807040EAD1704900FC
:1001E00009E0490841EAC071A0EBC35000F50000E6
:1001F000400800EBC350F0BC00F040BA614201225D
:1002000002EB4101001BF6E7F0BC704781F00041B2
:10021000AAE780F00040A7E780EA010210B502F0EB
:100220000043400022D04A001FD0010E01EB1261B2
:10023000C0F35600C2F3560240F4000042F400023C
:10024000A0FB022000047F39140400D0401C50EAB7
:10025000124001D44000491EC2B20C0604EBD0107B
:10026000401C4008802A02D003E0002010BD20F08E
:100270000100002900DA0020184310BD2DE9FE4FCF
:10028000804681EA0300C00F0C46009021F0004137
:1002900023F00045B8EB0200A94105D240462146B3
:1002A00090461C460B46024623F00040104347D0C0
:1002B000270DC7F30A00C3F30A510290401A0190B8
:1002C00040286BDAC3F3130040F4801B0098924679
:1002D00020B10023D2EB030A63EB0B0B01985946C4
:1002E000C0F14002504600F0A8F906460D465046BF
:1002F0005946019A00F0B0F910EB08006141002462
:1003000087EA115284EAE7731A4340D0009A62B335
:10031000019A012A4FEA075215DC001B61EB02012A
:100320004FF0004202EA0752CDE90042001C41F5BD
:10033000801132462B4600F0E7F903B0BDE8F08F9C
:1003400040462146F9E7001B61EB0201001C41F524
:10035000801300185B412018A2F5001747EB03013A
:1003600040EAD570B6196D4111E06D084FEA3606C6
:1003700045EAC0754FEA0752001B61EB0201001C01
:1003800041F5801149084FEA3000001951413246C9
:100390002B4603B0BDE8F04F00F0A7B9009801224A
:1003A00040000023D0EB020263EBE073009821468B
:1003B0004FEAE074B8EB000061EB0401E9E783F079
:1003C00000435BE781F0004158E72DE9FE4F81EAE9
:1003D000030404F0004421F0004100944FF0000BAE
:1003E00023F0004350EA01045ED052EA03045BD0DC
:1003F000C3F30A54C1F30A552C44A4F2F334019414
:10040000A0FB0254C1F3130141F48011C3F31303A1
:1004100043F4801301FB024400FB034E840A970A55
:1004200044EA815447EA8357A4FB076802958D0A82
:1004300005FB07854FEA932C04FB0C542705029D0E
:100440004FEA065847EA1637B5EB08056EEB070C7E
:10045000870E920E47EA811742EA8312A7FB020138
:10046000B6EB0B0164EB00042B0D43EA0C335E1872
:1004700044EB1C50DA465146E7FB0201C5F3130476
:100480004FEA0B3343EA14534FEA0432019C43EA28
:100490000603A4F10C040294009CCDE900B400F022
:1004A00033F903B0BDE8F08F00200146F9E72DE9EC
:1004B000F04D81EA030404F0004B21F0004514469E
:1004C0004FF0000A23F0004150EA050220D054EA20
:1004D00001021DD0C5F30A570246C5F31303C1F349
:1004E0001300C1F30A5640F4801543F48013A7EBC0
:1004F0000608101BD64608F2FD3873EB050002D340
:1005000008F1010801E092185B41B8F1000F03DA2D
:1005100000200146BDE8F08D00204FF48011064612
:1005200084460EE0171B73EB050705D3121B63EB24
:10053000050306434CEA010C49084FEA30009218C3
:100540005B4150EA0107EDD152EA030012D082EA82
:10055000040083EA0501084305D0101BAB4106D215
:100560000122002306E000224FF0004302E06FF07A
:10057000010253101AEB06004CEB085110EB0A0075
:1005800041EB0B01BDE8F04D00F0AFB870B521F0C4
:10059000004303430CD0C1F30A550024D5EB0405F6
:1005A00064EB0403D617AD1AB34102DB0020014609
:1005B00070BD201841EB025170BD0EB5C10F80EA2D
:1005C000E0700844CA07002140F233438DE80E0072
:1005D0000A460B4600F098F803B000BD00F0004258
:1005E00030F000400AD0C10D01F56071C0F3160073
:1005F00042EA0151C20840071143704700200146FA
:10060000704701F0004330B421F0004150EA01028C
:1006100006D00A0DA2F56072C1F31301002A02DCB4
:1006200030BC00207047440F44EAC104C100E01808
:1006300030BC00EBC25000F021B8202A04DB203A85
:1006400000FA02F1002070479140C2F1200320FA25
:1006500003F3194390407047202A06DBCB17203A5A
:1006600041FA02F043EAE07306E041FA02F3D040B7
:10067000C2F1200291400843194670470029A8BFE3
:100680007047401C490008BF20F00100704710B4BB
:10069000B0FA80FC00FA0CF050EA010404BF10BC70
:1006A000704749B1CCF1200421FA04F411FA0CF19D
:1006B00018BF012121430843A3EB0C01CB1D4FEAD6
:1006C00000614FEA102042BF002010BC704700EBD1
:1006D000C35010440029A4BF10BC7047401C4900FF
:1006E00008BF20F0010010BC704710B5141E73F154
:1006F000000408DA401C41F1000192185B411A43E2
:1007000001D120F0010010BD2DE9F04D92469B462D
:1007100011B1B1FA81F202E0B0FA80F220329046D3
:10072000FFF78BFF04460F4640EA0A0041EA0B013F
:1007300053465A46084313D0114653EA010019D0D4
:10074000C8F140025046FFF7EDFC05460E46504604
:1007500059464246FFF771FF084305D0012004E0E7
:1007600020463946BDE8F08D0020054346EAE07694
:100770002C4337430A986305E40AA0EB08000022E3
:10078000FD0A44EA47540A3002D500200146E9E751
:10079000010510196941DDE9084500196941BDE805
:1007A000F04DA2E72DE9F04D00231A461B1A8A41AD
:1007B00003DB00200146BDE8F08DC1F30A52C1F30E
:1007C000130141F480154FF0000BD10702D100183E
:1007D0006D41521E0027044640F2FF11384601EBDE
:1007E000620A3E468046024600204FF48011FFF721
:1007F00099FCC2197141BB1846EB0100B4EB030C24
:1008000075EB000C04D3E41A65EB000517460E46A1
:10081000241908F101006D4180463428E3DDF919FF
:1008200046EB0600091BA84103D24FF0FF321346E6
:1008300001E0002213461BEB070046EB0A51BDE81E
:10084000F04DFFF752BF0000064C074D06E0E06890
:1008500040F0010394E8070098471034AC42F6D307
:10086000FFF748FCB0250008D02500080EB540F27F
:10087000334102910021CDE900110A460B46FFF7F2
:1008800043FF03B000BD70B5C1F30A5201F000454B
:100890000024C1F3130140F2FF3341F480119A4266
:1008A00001DA002070BD40F233439A42A2F2334293
:1008B00003DC5242FFF736FC00E090402C43F1D0BD
:1008C000404270BDFEE770472DE9F04FADF2146D68
:1008D00015460C4601F0CAF9204601F0B3F9464925
:1008E000002001F5807380AA4FEA0D0651F82040E0
:1008F00046F8304053F8204042F83040401C9146C2
:100900004028F3DB3D4F4FF0000B0DF58062402196
:100910003046C7F800B001F0F5F80DF580624021CF
:1009200080A801F0EFF80024BA46B04658F8340029
:100930000146FFF771FCFFF751FE064608EBC400C5
:100940000F4640680146FFF767FCFFF747FE324657
:100950003B46FFF793FC01F0ADFAFFF752FE641C33
:10096000CAF80000402CE1DB00244E464746CAF896
:1009700000B000BF56F8341057F83400FFF74CFCB5
:1009800045F8340006EBC400416807EBC40040683A
:10099000FFF742FC05EBC401641C4860402CE9DB16
:1009A0000DF580624021284601F074F9DFF850808F
:1009B000002400BF55F834000146FFF72DFCFFF777
:1009C0000DFE064605EBC4000F4640680146FFF7E2
:1009D00023FCFFF703FE32463B46FFF74FFC01F0D6
:1009E00069FAFFF70EFE641CC8F80000402CE1DB3A
:1009F0000DF2146DBDE8F08F1C00002004000020F3
:100A00000000002030B528B308C813491422194447
:100A1000B1FBF2F18900C163104981630221417782
:100A20001A6843F6F0718A43D0E900142143D0E9F3
:100A300002452C43214304692143446921438469CD
:100A4000214311431960002141630122427701775C
:100A5000084630BD012030BDF8FFFDBF0000024058
:100A60002DE9F84FDFF890A100220AF1040B14469B
:100A700001274FF00F090BF1040E00BF0B6807FAB6
:100A800004F52B40AB4274D1DFF870C14E68A6EB81
:100A90000C0866452BD00DDC032E34D005DC36B3B4
:100AA000012E19D0022E2FD11BE0112E16D0122E9E
:100AB0002AD119E0B8F5881F19D006DCB8F5803FB7
:100AC00015D0B8F5801F1FD111E0B8F5001F0ED06A
:100AD000B8F5041F18D10AE0CA6815E0CA68121DEB
:100AE00012E0CA6808320FE0CA680C320CE08A686B
:100AF0002AB1012A4FF0080203D0456104E0042224
:100B000002E0056100E00022FF2B01D8064601E06B
:100B100000F104064FEA840501D9A5F12005D6F8B5
:100B200000C009FA05F82CEA080C02FA05F54CEAAF
:100B3000050CC6F800C04D68ED0057D5304DAE69C4
:100B400046F00106AE61AD6924F0030605F001052B
:100B500000952C4D06EB050CDCF80850A6074FEA73
:100B6000167809FA08F6B543274EB04202D100269E
:100B700010E03BE0254EB04201D101260AE0244EB0
:100B8000B04201D1022605E0224EB04201D1032637
:100B900000E0042606FA08F62E43CCF808604D68FB
:100BA000DAF80060ED03554601D51E4300E09E4390
:100BB0002E604D68DBF80060AD035D4601D51E4335
:100BC00000E09E432E604D68DEF80060ED02754641
:100BD00001D51E4300E09E432E604D68AD020E4DD0
:100BE0002E6801D51E4300E09E432E60641C102C2D
:100BF000FFF444AFBDE8F88F00040140000011107D
:100C0000001002400000014000080140000C0140BB
:100C100000100140001401400C0401400AB10161C0
:100C200070470904FBE70000014880687047000036
:100C300008000020024881680278114481607047F2
:100C400008000020074810B5016841F0100101605C
:100C5000032000F067F8002000F006F800F024F808
:100C6000002010BD0020024070B50D4D04464FF429
:100C70007A712878B1FBF0F00A490968B1FBF0F00D
:100C800000F0D0FA48B9102C07D200222146501E9D
:100C900000F028F800206C6070BD012070BD0000DD
:100CA00008000020140000200C4808B5816941F0BC
:100CB00001018161816901F001010091C16941F087
:100CC0008051C161C06900F08050009004484168C3
:100CD00021F0E06141F00071416008BD0010024068
:100CE00000000140F0B40E4B1B680C46C3F3022316
:100CF000C3F10705042D00D90425191D072901D2C8
:100D0000002300E0DB1E012606FA05F1491E214002
:100D100099409E40761E16403143F0BC00F0F8BA70
:100D20000CED00E0064900F0070208684FF6FF03EB
:100D3000184040EA0220034A104308607047000050
:100D40000CED00E00000FA052DE9F047DFF85481D2
:100D500005460E46D8F8000000F00700B0420CD25D
:100D6000D8F8001021F007013143C8F80010D8F876
:100D7000000000F00700B0426FD128684A4C81079C
:100D800012D5400703D5606840F4E06060602878C1
:100D9000000703D5606840F4605060606068A9682F
:100DA00020F0F000084360602878C00744D06868ED
:100DB000012816D02168022816D0890700294CDAAC
:100DC000616821F0030101436160FFF72DFF69684D
:100DD000074641F2883001290ED00229814618D0F9
:100DE00026E021688903E9E78901E7E7FFF71CFFAF
:100DF000C11B494501D918E081466068C0F38100F4
:100E00000128F3D118E000BFFFF70EFFC11B4945D1
:100E10000BD86068C0F381000228F5D10CE000BF58
:100E2000FFF702FFC11B494502D90320BDE8F08747
:100E3000606810F00C0FF3D1D8F80010404601F0B4
:100E40000701B1420BD9016821F00701314301606C
:100E5000006800F00700B04201D00120E6E72878E2
:100E6000400705D56068E96820F4E06008436060E9
:100E70002878000706D56068296920F4605040EAA8
:100E8000C100606000F016F86168084AC1F3031100
:100E9000515CC840064908600020FFF7E5FE0020CD
:100EA000C4E7000000200240001002408024000837
:100EB0001400002012A185B00FC98DE80F0014A006
:100EC000144A006804905168134801F00C03042B85
:100ED00010D0082B0ED1C1F38343C9031DF80300C2
:100EE0000AD5516804AAC1F34041515C0A4A5043F3
:100EF000B0FBF1F005B0704708494843FAE700003D
:100F000002030405060708090A0B0C0D0E0F10104A
:100F1000010200000010024000127A0000093D00AA
:100F20002DE9F84F04460078B94DC00748D06868ED
:100F3000C0F38100012807D06868C0F3810002284F
:100F400009D16868C00306D52868800338D5606871
:100F500000286FD034E06068B0F5803F0BD010B14E
:100F6000B0F5A02F11D0286820F4803028602868C0
:100F700020F4802002E0286840F480302860606817
:100F800088B1FFF751FE064609E0286840F480204A
:100F90002860F0E7FFF748FE801B642875D82868B2
:100FA0008003F7D50CE0FFF73FFE064605E000BFE3
:100FB000FFF73AFE801B6428F0D828688003F7D436
:100FC0002078944E80074FF001094FF000083BD580
:100FD000686810F00C0F07D06868C0F38100022821
:100FE00009D16868C00306D42868800714D5206931
:100FF00001281FD110E02069B0B1C6F80090FFF7BA
:1010000013FE074605E000BFFFF70EFEC01B0228D7
:10101000C4D828688007F7D52868616920F0F800EF
:1010200040EAC10028600FE0C6F80080FFF7FCFD31
:10103000074606E0E9E000BFFFF7F6FDC01B022807
:1010400023D828688007F7D4207800072CD5724869
:10105000A169D9B1C0F80090FFF7E6FD074604E0AA
:10106000FFF7E2FDC01B02280FD8686A8007F7D59A
:101070006A484FF4FA510068B0FBF1F0009000BFED
:101080000098411E0091FAD20EE080E0C0F8008086
:10109000FFF7CAFD074604E0FFF7C6FDC01B0228A4
:1010A00075D8686A8007F7D42078400760D5E8696A
:1010B0000027C00008D4E86940F08050E861E86982
:1010C000012700F08050009055480168C90513D4ED
:1010D0000168834641F480710160FFF7A5FD8246F7
:1010E00006E000BFFFF7A0FDA0EB0A0064284ED881
:1010F000DBF80000C005F5D5E06801280AD008B18A
:10110000052813D0286A20F001002862286A20F000
:10111000040002E0286A40F001002862E06841F221
:10112000883B98B1FFF780FD82460BE0286A40F0CB
:1011300004002862EEE700BFFFF776FDA0EB0A018E
:1011400059455AD8286A8007F6D50CE0FFF76CFDA0
:10115000824605E0FFF768FDA0EB0A0159454CD82F
:10116000286A8007F6D41FB1E86920F08050E86152
:10117000E06988B36968C1F38101022945D002287A
:10118000C6F8608004D0FFF74FFD044638E034E035
:10119000FFF74AFD074604E0FFF746FDC01B0228A3
:1011A0002BD828688001F7D4206AB0F5803F05D19C
:1011B0006868A16820F4003008436860D4E9080139
:1011C0000843696821F4741108436860C6F86090A8
:1011D000FFF72AFD044606E015E000BFFFF724FDF7
:1011E000001B022809D828688001F7D50BE000BF52
:1011F000FFF71AFD001B022802D90320BDE8F88F73
:1012000028688001F4D40020F8E70120F6E7000008
:1012100000100240000042428004424214000020BC
:101220000070004010B5401EB0F1807F01D3012056
:1012300010BD4FF0E02460610F21601700F068F8E6
:101240000020A06107202061002010BDFEE7000003
:101250000F4882B0416941F00101416140690D4987
:1012600000F0010000900C4801604FF480414160A3
:10127000402181608021C160890001618900416154
:10128000002181614FF40051C16102B0FFF7BABB88
:1012900000100240080002401C02002070B586B019
:1012A000002418480094019402940394816941F049
:1012B00010018161816901F010010491816941F09F
:1012C00020018161816901F020010491816941F06F
:1012D000040181618069012200F004000A4E550377
:1012E000049029463046FFF799FC01200095CDE98E
:1012F00001040220039069463046FFF7B1FB06B0B7
:1013000070BD00000010024000100140FEE7704771
:101310000907090E002806DA00F00F0000F1E020AE
:1013200080F8141D704700F1E02080F80014704729
:1013300070477047FFF77EBC30B58FB028216846F4
:10134000FEF707FF14210AA8FEF703FF0121080496
:10135000CDE900100024029402250491CDE9075044
:101360004FF4E01009906846FFF7DAFD0F20CDE951
:101370000A056802CDE90C4002210AA80E94FFF785
:10138000E3FC0FB030BD00000D48016841F00101E1
:10139000016041680B4A1140416001680A4A1140EE
:1013A0000160016821F480210160416821F4FE019F
:1013B00041604FF41F0181600449C0030860704719
:1013C000001002400000FFF8FFFFF6FE08ED00E00D
:1013D000FEE7490050EAC12018BF04204A0D18BF9B
:1013E00040F0010040F2FF72B2EB515F08BF40F0E5
:1013F0000200012808BF0520704700002DE9F74FC3
:10140000144694B00021C4E902111599079121F006
:101410000045C9498D4206DC1599C4E9000117B0A1
:101420000020BDE8F08FC549DFF814A3A9423CDDD8
:101430000799C44E0029C44FC44A1599534619DD73
:10144000FEF7BDFF554506D0C14AC24BFEF7B7FFB8
:10145000C4E900010AE04FF0D352BE4BFEF7AFFFE4
:1014600032463B46FEF7ABFFC4E9000117B001204E
:10147000BDE8F08FFEF702FF554506D0B44AB54BE4
:10148000FEF7FCFEC4E900010AE04FF0D352B14B75
:10149000FEF7F4FE32463B46FEF7F0FEC4E90001DB
:1014A00017B04FF0FF30BDE8F08FAB49A942159956
:1014B00078DB21F0004183468846A84AA84BFEF716
:1014C00084FF0022A74BFEF7D9FEFFF7DCF9099055
:1014D000FFF773F806460F469C4A5346FEF775FF22
:1014E00043465A46FEF76EFF80468A46984A994B15
:1014F00030463946FEF769FF2A0D01250B92424618
:101500005346FEF75FFF032DC4E9000139D00B9865
:10151000C1F30A51401A05EB45111139814230DA05
:101520009148C346784400EB0510CDF80CA00C9010
:10153000D0E9002330463946FEF747FF02460B4606
:101540000491069058460399FEF739FF80468A4673
:1015500002460B4658460399FEF731FF049B069A54
:10156000FEF72DFF83460C9803913946D0E90223FC
:101570003046FEF72AFF5A46039BFEF720FF6D1CFC
:10158000BDE707980028A2BF099817B0BDE8F08F03
:10159000616881F000416160099817B04042BDE880
:1015A000F08FFFE784461598C1F31301C0F30A508A
:1015B000A0F2F5304FEA601800F01F06C6F12000D7
:1015C000139000200690079041F4801E05206D4680
:1015D00076B1664A08EB00017A4452F8213002EBFA
:1015E0008101B3404A68139922FA01F1194305E0D9
:1015F0005F4908EB0002794451F82210A1FB0E2745
:10160000A1FB0C131A449A4234BF0123002303EBBD
:10161000070A05EB8003D3E901B70F448F4234BFBB
:101620000121002193448B4411B1934502D903E079
:10163000934501D2012100E00021C3E901B75144E3
:1016400045F82010011EA0F10100C1DC0298059FA1
:1016500000F10050800F12900298DDE903568000DF
:10166000FEF7ABFF834628460D91FFF7FFF86FF0BA
:101670001D02FEF78BFFCDE90E013046FFF7F6F8AD
:101680006FF03D02FEF782FF80468A463846FFF73C
:10169000EDF86FF05D02FEF779FF074642465346CC
:1016A0001191FEF7EBFDDDE90E23FEF7E7FD5A464B
:1016B0000D9BFEF7E3FD00250E465A4628460D9B7E
:1016C000FEF77DFEDDE90E23FEF779FE4246534626
:1016D000FEF775FE3A46119BFEF774FEDFF898A000
:1016E000244A5346FEF771FE07468846234A244B98
:1016F00031462846FEF769FE3A464346FEF7BEFDF0
:10170000074688464FF0A842534631462846FEF722
:101710005CFE3A464346FEF7B1FD159A12F0004FC3
:1017200004D0129A81F0004152421292C4E90001A1
:10173000129817B0BDE8F08FFB21E93F7CD9024039
:10174000FB21F93F7370032E8A19A33B000040541C
:101750003163621A61B4D03DFB21394183C8C96D40
:10176000305FE43F0000E03F980F0000140F0000DE
:10177000F60E0000182D4454FB21F93D3326A61126
:10178000460B113C2DE9FF4D21F0004807460C4661
:10179000B8F1795F08DAFFF776F8002801BF00207A
:1017A000324904B0BDE8F08D3A462346104619464A
:1017B000FEF70BFE054602462D480E460B46062157
:1017C000784400F05DF82A463346FEF7FEFDDDE979
:1017D000022382468B4638462146FEF7F6FD044634
:1017E0000F4652465B4628463146FEF7EEFD22463E
:1017F0003B46FEF7E4FD07468A464FF0FF32284697
:101800003146FEF7C3FE1B4A90450ADA3A46534674
:10181000FEF7D5FD04B00022BDE8F04D134BFEF7F6
:10182000D1BD154A4245A8BFA8F500154FF00004E8
:10183000B8BF124D22462B46FEF7C1FD064688462C
:1018400022462B4600200949FEF7B9FD04460D4605
:101850003A46534630464146FEF7B1FD04B02246B3
:101860002B46BDE8F04DFEF7ADBD00000000F03F97
:10187000CC0C00003333D33F0000E93F0000D23FDF
:101880002DE9F0414F1E00EBC7010446D1E90001EC
:1018900015461E4637F006020DD02A463346FEF79F
:1018A00094FD7F1E04EBC703D3E90023FEF7E6FC9B
:1018B00037F00602F1D1022F25D0042F13D0062FC6
:1018C00018BFBDE8F0812A463346FEF77EFDD4E915
:1018D0000A23FEF7D3FC2A463346FEF776FDD4E909
:1018E0000823FEF7CBFC2A463346FEF76EFDD4E90B
:1018F0000623FEF7C3FC2A463346FEF766FDD4E90D
:101900000423FEF7BBFC2A463346FEF75EFDD4E90E
:101910000223FEF7B3FC2A463346FEF756FDD4E910
:101920000023BDE8F041FEF7A9BC00002DE9FF4D02
:10193000054621F0004084B00C46B0F1795F0BDA27
:101940002846FFF746FD042808BF00F06FF8284638
:1019500008B02146BDE8F08D2A460B461046FEF73A
:1019600034FD06460F462A462346FEF72EFD8046E6
:1019700026488A4632463B4605217844FFF780FFD9
:1019800083461098029160B3214A224B404651464B
:10199000FEF71BFDCDE900015A4640465146029B29
:1019A000FEF713FD82468846DDE906014FF0FF325F
:1019B000FEF7ECFD52464346FEF701FD32463B463C
:1019C000FEF703FDDDE90623FEF7F9FCDDE9002360
:1019D000FEF7F5FC08B02A462346BDE8F04DFEF7B9
:1019E000F1BC0B465A4630463946FEF7EEFC084A33
:1019F000084BFEF743FC42465346FEF7E6FC08B0B0
:101A00002A462346BDE8F04DFEF738BC0A0C00001C
:101A1000495555555555C5BF0122FEF7B7BD0022A2
:101A2000134610461146FEF742BD0000024A002050
:101A30001107FEF7ABBD000001FDFFFF02E008C883
:101A4000121F08C1002AFAD170477047002001E038
:101A500001C1121F002AFBD1704700000149086034
:101A6000704700001800002000B5244B21F0004210
:101A700087B09A42DCBF0022134629DD204B9A42F0
:101A800008D140B94FF00100FFF7E8FFFFF7C7FFAB
:101A900007B000BD03DBFFF7BFFF07B000BD02AA20
:101AA000FFF7ACFC10F0030104BF0DF1080C9CE83B
:101AB0000F000DD0012001290ED0022914D00DF104
:101AC000080C00909CE80F00FFF730FF07B000BD46
:101AD000FFF758FE07B000BD0DF1080C00909CE820
:101AE0000F00FFF723FF05E00DF1080C9CE80F0045
:101AF000FFF748FE07B081F0004100BDFB21E93F40
:101B00000000F07F2DE9F74F82B0074603980128C7
:101B10007EDD00EBD076701002EBC0081546002089
:101B20000FE000BF07EB001105EBC002D1E9003464
:101B3000C2E9003408EBC002D1E90231C2E9003148
:101B4000401CB0EB660FEDDB71103A462846FFF7FC
:101B5000D9FF71103A464046FFF7D4FF002466E0F3
:101B60000398FEF72AFD81468A462046FEF725FDAA
:101B7000324A334BFEF729FC4A465346FEF797FCA0
:101B80008A468146FFF770FFFEF73BFD83464846D5
:101B9000514600F03FF9FEF734FD80F0004908EBB4
:101BA000C4004068019048460199FEF735FB824623
:101BB00058F83400009058460099FEF72DFB514626
:101BC000FEF724FB824648460099FEF725FB814636
:101BD00058460199FEF720FB4946FEF7C5FA8146B3
:101BE000514655F83400FEF7BFFA05EBC40B47F831
:101BF00034004946DBF80400FEF7B6FA07EBC401EF
:101C00004860514655F83400FEF700FB014600E0FD
:101C100010E004EB660007EBC00ACAF80010494662
:101C2000DBF80400FEF7F2FA641CCAF80400B4EB17
:101C3000660F95DB05B0BDE8F08F0000182D445409
:101C4000FB211940084A002150F8213042F8213088
:101C5000491C2029F8DB20205FF0000142F8201009
:101C6000401C4028FADB70471C010020084A002174
:101C700050F8213042F82130491C2029F8DB20207F
:101C80005FF0000142F82010401C4028FADB70474A
:101C90001C0000202DE9F74F82B007460398012869
:101CA0007DDD00EBD076701002EBC00815460020F9
:101CB0000FE000BF07EB001105EBC002D1E90034D3
:101CC000C2E9003408EBC002D1E90231C2E90031B7
:101CD000401CB0EB660FEDDB71103A462846FFF76B
:101CE000D9FF71103A464046FFF7D4FF002465E063
:101CF0000398FEF762FC81468A462046FEF75DFCAB
:101D0000314A324BFEF761FB4A465346FEF7CFFBA2
:101D10008A468146FFF7A8FEFEF773FC83464846D5
:101D2000514600F077F8FEF76CFC814608EBC400E2
:101D30004068019048460199FEF76EFA824658F8CD
:101D40003400009058460099FEF766FA5146FEF7B7
:101D50005DFA824648460099FEF75EFA814658468B
:101D60000199FEF759FA4946FEF7FEF981465146B8
:101D700055F83400FEF7F8F905EBC40B47F83400CA
:101D80004946DBF80400FEF7EFF907EBC4014860B1
:101D9000514655F83400FEF739FA014600E010E0EC
:101DA00004EB660007EBC00ACAF800104946DBF8EE
:101DB0000400FEF72BFA641CCAF80400B4EB660FAB
:101DC00096DB05B0BDE8F08F182D4454FB21194077
:101DD000ADF5007DFEF736FFFFF7AEFAFFF75EFACE
:101DE000FFF736FA094D0024084905EBC4106A468E
:101DF0008039FEF769FD0020401C4028FCDB0449C7
:101E00000020641C08600A2CEEDBFEE7801F00083F
:101E10000000002000B5254B21F0004287B09A4217
:101E200003DC0022134600922BE0214B9A4208D19A
:101E300040B94FF00100FFF711FEFFF7F0FD07B0CA
:101E400000BD03DBFFF7E8FD07B000BD02AAFFF706
:101E5000D5FA10F003014FF001000DD0012914D084
:101E600002291AD00DF1080C9CE80F00FFF78AFC3C
:101E700007B081F0004100BD0DF1080C00909CE816
:101E80000F00FFF753FD07B000BD0DF1080C9CE8F3
:101E90000F00FFF777FC07B000BD0DF1080C0090B4
:101EA0009CE80F00FFF742FDE2E70000FB21E93F5D
:101EB0000000F07F2DE9F04106460F46FEF772FC68
:101EC000041E0D4618BF0120284320F00040C0F139
:101ED0007F6000F1E040C00F0ED0301C18BF012021
:101EE000384320F00040C0F17F6000F1E040C00FB7
:101EF00004BF0120FFF7B2FD20462946BDE8F0816E
:101F000027AE93B7B9BE01B8AF453439334B9039DA
:101F1000F4EB67BA18B7ADBA4FD7503BFF21953BEA
:101F20008B7C14BC23174EBC67EAB43C4693FB3C45
:101F3000C04150BD13589DBD2558143E2136E43E86
:101F40002136E43E2558143E13589DBDC04150BD76
:101F50004693FB3C67EAB43C23174EBC8B7C14BC15
:101F6000FF21953B4FD7503B18B7ADBAF4EB67BA9A
:101F7000334B9039AF453439B9BE01B827AE93B76A
:101F800000000000D9AB173F1504C2BD15EF433E5A
:101F90000000803F09B8D53EF304B53E72ADA03FC6
:101FA000D7B35D3F5E83EC3EB2E4A83F8D65973FBB
:101FB0000000003F8D65973FB2E4A83F5E83EC3E92
:101FC000D7B35D3F72ADA03FF304B53E09B8D53E2F
:101FD0000000803F15EF433E1504C2BDD9AB173F4B
:101FE00000000080D9AB17BF1504C23D15EF43BEFA
:101FF000000080BF09B8D5BEF304B5BE72ADA0BF66
:10200000D7B35DBF5E83ECBEB2E4A8BF8D6597BF5A
:10201000000000BF8D6597BFB2E4A8BF5E83ECBE31
:10202000D7B35DBF72ADA0BFF304B5BE09B8D5BECE
:10203000000080BF15EF43BE1504C23DD9AB17BFEA
:1020400000000000D9AB173F1504C2BD15EF433E99
:102050000000803F09B8D53EF304B53E72ADA03F05
:10206000D7B35D3F5E83EC3EB2E4A83F8D65973FFA
:102070000000003F8D65973FB2E4A83F5E83EC3ED1
:10208000D7B35D3F72ADA03FF304B53E09B8D53E6E
:102090000000803F15EF433E1504C2BDD9AB173F8A
:1020A00000000000D9AB17BF1504C23D15EF43BEB9
:1020B000000080BF09B8D5BEF304B5BE72ADA0BFA5
:1020C000D7B35DBF5E83ECBEB2E4A8BF8D6597BF9A
:1020D000000000BF8D6597BFB2E4A8BF5E83ECBE71
:1020E000D7B35DBF72ADA0BFF304B5BE09B8D5BE0E
:1020F000000080BF15EF43BE1504C23DD9AB17BF2A
:1021000000000000D9AB173F1504C2BD15EF433ED8
:102110000000803F09B8D53EF304B53E72ADA03F44
:10212000D7B35D3F5E83EC3EB2E4A83F8D65973F39
:102130000000003F8D65973FB2E4A83F5E83EC3E10
:10214000D7B35D3F72ADA03FF304B53E09B8D53EAD
:102150000000803F15EF433E1504C2BDD9AB173FC9
:1021600000000000D9AB17BF1504C23D15EF43BEF8
:10217000000080BF09B8D5BEF304B5BE72ADA0BFE4
:10218000D7B35DBF5E83ECBEB2E4A8BF8D6597BFD9
:10219000000000BF8D6597BFB2E4A8BF5E83ECBEB0
:1021A000D7B35DBF72ADA0BFF304B5BE09B8D5BE4D
:1021B000000080BF15EF43BE1504C23DD9AB17BF69
:1021C00000000080D9AB173F1504C2BD15EF433E98
:1021D0000000803F09B8D53EF304B53E72ADA03F84
:1021E000D7B35D3F5E83EC3EB2E4A83F8D65973F79
:1021F0000000003F8D65973FB2E4A83F5E83EC3E50
:10220000D7B35D3F72ADA03FF304B53E09B8D53EEC
:102210000000803F15EF433E1504C2BDD9AB173F08
:1022200000000080D9AB17BF1504C23D15EF43BEB7
:10223000000080BF09B8D5BEF304B5BE72ADA0BF23
:10224000D7B35DBF5E83ECBEB2E4A8BF8D6597BF18
:10225000000000BF8D6597BFB2E4A8BF5E83ECBEEF
:10226000D7B35DBF72ADA0BFF304B5BE09B8D5BE8C
:10227000000080BF15EF43BE1504C23DD9AB17BFA8
:1022800000000000D9AB173F1504C2BD15EF433E57
:102290000000803F09B8D53EF304B53E72ADA03FC3
:1022A000D7B35D3F5E83EC3EB2E4A83F8D65973FB8
:1022B0000000003F8D65973FB2E4A83F5E83EC3E8F
:1022C000D7B35D3F72ADA03FF304B53E09B8D53E2C
:1022D0000000803F15EF433E1504C2BDD9AB173F48
:1022E00000000000D9AB17BF1504C23D15EF43BE77
:1022F000000080BF09B8D5BEF304B5BE72ADA0BF63
:10230000D7B35DBF5E83ECBEB2E4A8BF8D6597BF57
:10231000000000BF8D6597BFB2E4A8BF5E83ECBE2E
:10232000D7B35DBF72ADA0BFF304B5BE09B8D5BECB
:10233000000080BF15EF43BE1504C23DD9AB17BFE7
:1023400000000080D9AB173F1504C2BD15EF433E16
:102350000000803F09B8D53EF304B53E72ADA03F02
:10236000D7B35D3F5E83EC3EB2E4A83F8D65973FF7
:102370000000003F8D65973FB2E4A83F5E83EC3ECE
:10238000D7B35D3F72ADA03FF304B53E09B8D53E6B
:102390000000803F15EF433E1504C2BDD9AB173F87
:1023A00000000000D9AB17BF1504C23D15EF43BEB6
:1023B000000080BF09B8D5BEF304B5BE72ADA0BFA2
:1023C000D7B35DBF5E83ECBEB2E4A8BF8D6597BF97
:1023D000000000BF8D6597BFB2E4A8BF5E83ECBE6E
:1023E000D7B35DBF72ADA0BFF304B5BE09B8D5BE0B
:1023F000000080BF15EF43BE1504C23DD9AB17BF27
:1024000000000080D9AB173F1504C2BD15EF433E55
:102410000000803F09B8D53EF304B53E72ADA03F41
:10242000D7B35D3F5E83EC3EB2E4A83F8D65973F36
:102430000000003F8D65973FB2E4A83F5E83EC3E0D
:10244000D7B35D3F72ADA03FF304B53E09B8D53EAA
:102450000000803F15EF433E1504C2BDD9AB173FC6
:1024600000000000D9AB17BF1504C23D15EF43BEF5
:10247000000080BF09B8D5BEF304B5BE72ADA0BFE1
:102480000000000000000000010203040607080924
:102490004C5555555555A53F7751C1166CC156BF82
:1024A0009015CB19A001FA3EAD529C804F7E92BE92
:1024B000C4B1B4BD9EEE213ED43888BEE9FAA8BDB1
:1024C00000004054FB21F93F3163621A61B4D03DF2
:1024D0000000601A61B4D03D7370032E8A19A33BCB
:1024E0000000002E8A19A33BC14920259A837B391D
:1024F00000000000000000006E83F9A22915444E80
:10250000D15727FCC0DD34F5999562DB4190433CFF
:10251000AB6351FE61C5BBDE3A6E24B7E0D24D42DB
:10252000EA2E49061C92D1091CEB1DFE3EA729B1DB
:10253000F53582E88444BB2E26709CE9417E5FB469
:1025400039D69139F43953838B5F849C3B28F9BD8C
:10255000FF97F81F0F9805DE8B112FEF1F6D0A5A9A
:10256000CF7E366DB709CB27663F464F2DEA5F9E7B
:10257000C7BA27757BF1E5EBF739073DEA92528A36
:10258000B15FFB6B085D8D1FA6F810111111813F23
:10259000D561C119A0012ABF7DFEB157E31DC73E19
:1025A000EB9C2B8AE6E55ABE7CD5CF5A3AD9E53D5D
:1025B000D0250008000000201C0000003C1A000884
:1025C000EC2500081C000020440A00004C1A0008FA
:1025D00000000000000000000100000010000000EA
:0C25E0000000000000A24A0400000000FF
:04000005080000ED02
:00000001FF
