:020000040800F2
:10000000600A002001010008CF1100080D1100084E
:10001000CD1100080F080008911200080000000030
:10002000000000000000000000000000F3110008C4
:100030001108000800000000F1110008F511000887
:100040001B0100081B0100081B0100081B01000820
:100050001B0100081B0100081B0100081B01000810
:100060001B0100081B0100081B0100081B01000800
:100070001B0100081B0100081B0100081B010008F0
:100080001B0100081B0100081B0100081B010008E0
:100090001B0100081B0100081B0100081B010008D0
:1000A0001B0100081B0100081B0100081B010008C0
:1000B0001B0100081B0100081B0100081B010008B0
:1000C0001B0100081B0100081B0100081B010008A0
:1000D0001B0100081B0100081B0100081B01000890
:1000E0001B0100081B0100081B010008DFF80CD0F1
:1000F00000F02EFB004800479D1C0008600A00200D
:100100000648804706480047FEE7FEE7FEE7FEE7B1
:10011000FEE7FEE7FEE7FEE7FEE7FEE7491200081E
:10012000ED000008202A04DB203A21FA02F0002129
:10013000704721FA02F3D040C2F1200291400843F7
:1001400019467047D2B201E000F8012B491EFBD2DC
:1001500070470022F6E710B513460A4604461946D2
:10016000FFF7F0FF204610BDF0B480EA0102D40F83
:100170004200B2EB410F02D20246084611464A0045
:1001800042D0C30DDDB2C1F3C752AD1A202D35DA0E
:10019000C1F3160141F4000204B15242C5F1200638
:1001A00002FA06F12A411044B3EBD05F23D0C4B168
:1001B000012DA0EBC35009DCF0BC4FF0004202EA75
:1001C000C352DBB200F5000000F08FB9400000F12F
:1001D000807000EBC350A0F1807040EAD1704900FC
:1001E00009E0490841EAC071A0EBC35000F50000E6
:1001F000400800EBC350F0BC00F06EB96142012230
:1002000002EB4101001BF6E7F0BC704781F00041B2
:10021000AAE780F00040A7E780EA010210B502F0EB
:100220000043400022D04A001FD0010E01EB1261B2
:10023000C0F35600C2F3560240F4000042F400023C
:10024000A0FB022000047F39140400D0401C50EAB7
:10025000124001D44000491EC2B20C0604EBD0107B
:10026000401C4008802A02D003E0002010BD20F08E
:100270000100002900DA0020184310BD2DE9FE4FCF
:1002800081EA030404F0004421F0004100944FF09F
:10029000000B23F0004350EA01045ED052EA03044D
:1002A0005BD0C3F30A54C1F30A552C44A4F2F334CF
:1002B0000194A0FB0254C1F3130141F48011C3F374
:1002C000130343F4801301FB024400FB034E840A32
:1002D000970A44EA815447EA8357A4FB07680295CA
:1002E0008D0A05FB07854FEA932C04FB0C54270568
:1002F000029D4FEA065847EA1637B5EB08056EEB44
:10030000070C870E920E47EA811742EA8312A7FB79
:100310000201B6EB0B0164EB00042B0D43EA0C3336
:100320005E1844EB1C50DA465146E7FB0201C5F368
:1003300013044FEA0B3343EA14534FEA0432019C8F
:1003400043EA0603A4F10C040294009CCDE900B436
:1003500000F008F903B0BDE8F08F00200146F9E78E
:100360002DE9F04D81EA030404F0004B21F0004533
:1003700014464FF0000A23F0004150EA050220D055
:1003800054EA01021DD0C5F30A570246C5F3130310
:10039000C1F31300C1F30A5640F4801543F48013EF
:1003A000A7EB0608101BD64608F2FD3873EB0500D4
:1003B00002D308F1010801E092185B41B8F1000F87
:1003C00003DA00200146BDE8F08D00204FF48011D3
:1003D000064684460EE0171B73EB050705D3121B78
:1003E00063EB050306434CEA010C49084FEA300071
:1003F00092185B4150EA0107EDD152EA030012D096
:1004000082EA040083EA0501084305D0101BAB41D2
:1004100006D20122002306E000224FF0004302E052
:100420006FF0010253101AEB06004CEB085110EB71
:100430000A0041EB0B01BDE8F04D00F084B870B547
:1004400021F0004303430CD0C1F30A550024D5EB3F
:10045000040564EB0403D617AD1AB34102DB002098
:10046000014670BD201841EB025170BDC10F80EAFA
:10047000E0700844CA079623002100F036B80EB594
:10048000C10F80EAE0700844CA07002140F23343FC
:100490008DE80E000A460B4600F064F803B000BD7C
:1004A00001F0004330B421F0004150EA010206D0CF
:1004B0000A0DA2F56072C1F31301002A02DC30BC00
:1004C00000207047440F44EAC104C100E01830BC6A
:1004D00000EBC250AFF300800029A8BF7047401C5A
:1004E000490008BF20F00100704710B4B0FA80FC4A
:1004F00000FA0CF050EA010404BF10BC704749B187
:10050000CCF1200421FA04F411FA0CF118BF0121F6
:1005100021430843A3EB0C01CB1D4FEA00614FEAD6
:10052000102042BF002010BC704700EBC3501044A5
:100530000029A4BF10BC7047401C490008BF20F030
:10054000010010BC704710B5141E73F1000408DAE6
:10055000401C41F1000192185B411A4301D120F087
:10056000010010BD2DE9F04D92469B4611B1B1FA44
:1005700081F202E0B0FA80F22032904600F0FAF800
:1005800004460F4640EA0A0041EA0B0153465A4628
:10059000084313D0114653EA010019D0C8F14002B4
:1005A0005046FFF7BFFD05460E46504659464246A7
:1005B00000F0E0F8084305D0012004E02046394669
:1005C000BDE8F08D0020054346EAE0762C43374332
:1005D0000A986305E40AA0EB08000022FD0A44EA39
:1005E00047540A3002D500200146E9E701051019F9
:1005F0006941DDE9084500196941BDE8F04DA2E710
:100600002DE9FE4F804681EA0300C00F0C460090A2
:1006100021F0004123F00045B8EB0200A94105D2CA
:100620004046214690461C460B46024623F00040B9
:10063000104347D0270DC7F30A00C3F30A510290B5
:10064000401A019040286BDAC3F3130040F4801B7A
:100650000098924620B10023D2EB030A63EB0B0B08
:1006600001985946C0F14002504600F083F8064612
:100670000D4650465946019A00F08BF810EB0800E1
:100680006141002487EA115284EAE7731A4340D09B
:10069000009A62B3019A012A4FEA075215DC001B47
:1006A00061EB02014FF0004202EA0752CDE900423D
:1006B000001C41F5801132462B46FFF753FF03B073
:1006C000BDE8F08F40462146F9E7001B61EB0201CF
:1006D000001C41F5801300185B412018A2F500179B
:1006E00047EB030140EAD570B6196D4111E06D0882
:1006F0004FEA360645EAC0754FEA0752001B61EB28
:100700000201001C41F5801149084FEA3000001930
:10071000514132462B4603B0BDE8F04FFFF713BFFF
:100720000098012240000023D0EB020263EBE0734B
:10073000009821464FEAE074B8EB000061EB040139
:10074000E9E783F000435BE781F0004158E70000F0
:10075000064C074D06E0E06840F0010394E807000E
:1007600098471034AC42F6D3FFF7C4FC302400089D
:1007700050240008202A04DB203A00FA02F100206D
:1007800070479140C2F1200320FA03F319439040CF
:100790007047202A06DBCB17203A41FA02F043EAE1
:1007A000E07306E041FA02F3D040C2F1200291402A
:1007B0000843194670470EB540F2334102910021BB
:1007C000CDE900110A460B46FFF7CCFE03B000BD91
:1007D00070B5C1F30A5201F000450024C1F31301C2
:1007E00040F2FF3341F480119A4201DA002070BDDB
:1007F00040F233439A42A2F2334203DC5242FFF703
:1008000091FC00E090402C43F1D0404270BDFEE7E7
:10081000704700002DE9F043ADF20C6D17460C4611
:1008200001F084F9204601F06DF9DFF89080002492
:1008300008F580796D4680AE58F8240046F83400FB
:1008400059F82400FFF712FE45F83400641C402CD0
:10085000F2DB0DF58062402180A801F0B3F80DF5C0
:1008600080624021684601F0ADF8002455F834104C
:1008700056F83400FFF7D0FC47F8340005EBC4000D
:10088000416806EBC4004068FFF7C6FC07EBC401F3
:10089000641C4860402CE9DB0DF58062402138463D
:1008A00001F05EF90649002057F83020401C0A602C
:1008B0004028F9DB0DF20C6DBDE8F0831C00002030
:1008C0000000002030B528B308C813491422194489
:1008D000B1FBF2F18900C1631049816302214177C4
:1008E0001A6843F6F0718A43D0E900142143D0E935
:1008F00002452C432143046921434469214384690F
:10090000214311431960002141630122427701779D
:10091000084630BD012030BDF8FFFDBF0000024099
:100920002DE9F84FDFF890A100220AF1040B1446DC
:1009300001274FF00F090BF1040E00BF0B6807FAF7
:1009400004F52B40AB4274D1DFF870C14E68A6EBC2
:100950000C0866452BD00DDC032E34D005DC36B3F5
:10096000012E19D0022E2FD11BE0112E16D0122EDF
:100970002AD119E0B8F5881F19D006DCB8F5803FF8
:1009800015D0B8F5801F1FD111E0B8F5001F0ED0AB
:10099000B8F5041F18D10AE0CA6815E0CA68121D2C
:1009A00012E0CA6808320FE0CA680C320CE08A68AC
:1009B0002AB1012A4FF0080203D0456104E0042265
:1009C00002E0056100E00022FF2B01D8064601E0AD
:1009D00000F104064FEA840501D9A5F12005D6F8F7
:1009E00000C009FA05F82CEA080C02FA05F54CEAF1
:1009F000050CC6F800C04D68ED0057D5304DAE6906
:100A000046F00106AE61AD6924F0030605F001056C
:100A100000952C4D06EB050CDCF80850A6074FEAB4
:100A2000167809FA08F6B543274EB04202D10026DF
:100A300010E03BE0254EB04201D101260AE0244EF1
:100A4000B04201D1022605E0224EB04201D1032678
:100A500000E0042606FA08F62E43CCF808604D683C
:100A6000DAF80060ED03554601D51E4300E09E43D1
:100A70002E604D68DBF80060AD035D4601D51E4376
:100A800000E09E432E604D68DEF80060ED02754682
:100A900001D51E4300E09E432E604D68AD020E4D11
:100AA0002E6801D51E4300E09E432E60641C102C6E
:100AB000FFF444AFBDE8F88F0004014000001110BE
:100AC000001002400000014000080140000C0140FD
:100AD00000100140001401400C0401400AB1016102
:100AE00070470904FBE70000014880687047000078
:100AF0000800002002488168027811448160704734
:100B000008000020074810B5016841F0100101609D
:100B1000032000F067F8002000F006F800F024F849
:100B2000002010BD0020024070B50D4D04464FF46A
:100B30007A712878B1FBF0F00A490968B1FBF0F04E
:100B400000F0D0FA48B9102C07D200222146501EDE
:100B500000F028F800206C6070BD012070BD00001E
:100B600008000020140000200C4808B5816941F0FD
:100B700001018161816901F001010091C16941F0C8
:100B80008051C161C06900F0805000900448416804
:100B900021F0E06141F00071416008BD00100240A9
:100BA00000000140F0B40E4B1B680C46C3F3022357
:100BB000C3F10705042D00D90425191D072901D209
:100BC000002300E0DB1E012606FA05F1491E214044
:100BD00099409E40761E16403143F0BC00F0F8BAB2
:100BE0000CED00E0064900F0070208684FF6FF032D
:100BF000184040EA0220034A104308607047000092
:100C00000CED00E00000FA052DE9F047DFF8548113
:100C100005460E46D8F8000000F00700B0420CD29E
:100C2000D8F8001021F007013143C8F80010D8F8B7
:100C3000000000F00700B0426FD128684A4C8107DD
:100C400012D5400703D5606840F4E0606060287802
:100C5000000703D5606840F4605060606068A96870
:100C600020F0F000084360602878C00744D068682E
:100C7000012816D02168022816D0890700294CDAED
:100C8000616821F0030101436160FFF72DFF69688E
:100C9000074641F2883001290ED00229814618D03A
:100CA00026E021688903E9E78901E7E7FFF71CFFF0
:100CB000C11B494501D918E081466068C0F3810035
:100CC0000128F3D118E000BFFFF70EFFC11B494513
:100CD0000BD86068C0F381000228F5D10CE000BF9A
:100CE000FFF702FFC11B494502D90320BDE8F08789
:100CF000606810F00C0FF3D1D8F80010404601F0F6
:100D00000701B1420BD9016821F0070131430160AD
:100D1000006800F00700B04201D00120E6E7287823
:100D2000400705D56068E96820F4E060084360602A
:100D30002878000706D56068296920F4605040EAE9
:100D4000C100606000F016F86168084AC1F3031141
:100D5000515CC840064908600020FFF7E5FE00200E
:100D6000C4E70000002002400010024000230008F9
:100D70001400002012A185B00FC98DE80F0014A047
:100D8000144A006804905168134801F00C03042BC6
:100D900010D0082B0ED1C1F38343C9031DF8030003
:100DA0000AD5516804AAC1F34041515C0A4A504334
:100DB000B0FBF1F005B0704708494843FAE700007E
:100DC00002030405060708090A0B0C0D0E0F10108C
:100DD000010200000010024000127A0000093D00EC
:100DE0002DE9F84F04460078B94DC00748D068682F
:100DF000C0F38100012807D06868C0F38100022891
:100E000009D16868C00306D52868800338D56068B2
:100E100000286FD034E06068B0F5803F0BD010B18F
:100E2000B0F5A02F11D0286820F480302860286801
:100E300020F4802002E0286840F480302860606858
:100E400088B1FFF751FE064609E0286840F480208B
:100E50002860F0E7FFF748FE801B642875D82868F3
:100E60008003F7D50CE0FFF73FFE064605E000BF24
:100E7000FFF73AFE801B6428F0D828688003F7D477
:100E80002078944E80074FF001094FF000083BD5C1
:100E9000686810F00C0F07D06868C0F38100022862
:100EA00009D16868C00306D42868800714D5206972
:100EB00001281FD110E02069B0B1C6F80090FFF7FB
:100EC00013FE074605E000BFFFF70EFEC01B022819
:100ED000C4D828688007F7D52868616920F0F80031
:100EE00040EAC10028600FE0C6F80080FFF7FCFD73
:100EF000074606E0E9E000BFFFF7F6FDC01B022849
:100F000023D828688007F7D4207800072CD57248AA
:100F1000A169D9B1C0F80090FFF7E6FD074604E0EB
:100F2000FFF7E2FDC01B02280FD8686A8007F7D5DB
:100F30006A484FF4FA510068B0FBF1F0009000BF2E
:100F40000098411E0091FAD20EE080E0C0F80080C7
:100F5000FFF7CAFD074604E0FFF7C6FDC01B0228E5
:100F600075D8686A8007F7D42078400760D5E869AB
:100F70000027C00008D4E86940F08050E861E869C3
:100F8000012700F08050009055480168C90513D42E
:100F90000168834641F480710160FFF7A5FD824638
:100FA00006E000BFFFF7A0FDA0EB0A0064284ED8C2
:100FB000DBF80000C005F5D5E06801280AD008B1CB
:100FC000052813D0286A20F001002862286A20F042
:100FD000040002E0286A40F001002862E06841F263
:100FE000883B98B1FFF780FD82460BE0286A40F00D
:100FF00004002862EEE700BFFFF776FDA0EB0A01D0
:1010000059455AD8286A8007F6D50CE0FFF76CFDE1
:10101000824605E0FFF768FDA0EB0A0159454CD870
:10102000286A8007F6D41FB1E86920F08050E86193
:10103000E06988B36968C1F38101022945D00228BB
:10104000C6F8608004D0FFF74FFD044638E034E076
:10105000FFF74AFD074604E0FFF746FDC01B0228E4
:101060002BD828688001F7D4206AB0F5803F05D1DD
:101070006868A16820F4003008436860D4E908017A
:101080000843696821F4741108436860C6F86090E9
:10109000FFF72AFD044606E015E000BFFFF724FD38
:1010A000001B022809D828688001F7D50BE000BF93
:1010B000FFF71AFD001B022802D90320BDE8F88FB4
:1010C00028688001F4D40020F8E70120F6E700004A
:1010D00000100240000042428004424214000020FE
:1010E0000070004010B5401EB0F1807F01D3012098
:1010F00010BD4FF0E02460610F21601700F068F828
:101100000020A06107202061002010BDFEE7000044
:101110000F4882B0416941F00101416140690D49C8
:1011200000F0010000900C4801604FF480414160E4
:10113000402181608021C160890001618900416195
:10114000002181614FF40051C16102B0FFF7BABBC9
:1011500000100240080002401C02002070B586B05A
:10116000002418480094019402940394816941F08A
:1011700010018161816901F010010491816941F0E0
:1011800020018161816901F020010491816941F0B0
:10119000040181618069012200F004000A4E5503B8
:1011A000049029463046FFF799FC01200095CDE9CF
:1011B00001040220039069463046FFF7B1FB06B0F8
:1011C00070BD00000010024000100140FEE77047B3
:1011D0000907090E002806DA00F00F0000F1E020F0
:1011E00080F8141D704700F1E02080F8001470476B
:1011F00070477047FFF77EBC30B58FB02821684636
:10120000FEF7A7FF14210AA8FEF7A3FF0121080497
:10121000CDE900100024029402250491CDE9075085
:101220004FF4E01009906846FFF7DAFD0F20CDE992
:101230000A056802CDE90C4002210AA80E94FFF7C6
:10124000E3FC0FB030BD00000D48016841F0010122
:10125000016041680B4A1140416001680A4A11402F
:101260000160016821F480210160416821F4FE01E0
:1012700041604FF41F0181600449C003086070475A
:10128000001002400000FFF8FFFFF6FE08ED00E04E
:10129000FEE7490050EAC12018BF04204A0D18BFDC
:1012A00040F0010040F2FF72B2EB515F08BF40F026
:1012B0000200012808BF0520704700002DE9F74F04
:1012C000144694B00021C4E902111599079121F048
:1012D0000045C9498D4206DC1599C4E9000117B0E3
:1012E0000020BDE8F08FC549DFF814A3A9423CDD1A
:1012F0000799C44E0029C44FC44A1599534619DDB5
:10130000FFF71FFA554506D0C14AC24BFFF719FA3D
:10131000C4E900010AE04FF0D352BE4BFFF711FAC7
:1013200032463B46FFF70DFAC4E9000117B0012031
:10133000BDE8F08FFFF764F9554506D0B44AB54BC8
:10134000FFF75EF9C4E900010AE04FF0D352B14B58
:10135000FFF756F932463B46FFF752F9C4E9000160
:1013600017B04FF0FF30BDE8F08FAB49A942159997
:1013700078DB21F0004183468846A84AA84BFEF757
:101380007DFF0022A74BFFF73BF9FFF721FA0990F9
:10139000FFF775F806460F469C4A5346FEF76EFF68
:1013A00043465A46FFF7D0F980468A46984A994BF9
:1013B00030463946FEF762FF2A0D01250B92424660
:1013C0005346FFF7C1F9032DC4E9000139D00B984A
:1013D000C1F30A51401A05EB45111139814230DA47
:1013E0009148C346784400EB0510CDF80CA00C9052
:1013F000D0E9002330463946FEF740FF02460B464F
:101400000491069058460399FFF79BF980468A4657
:1014100002460B4658460399FFF793F9049B069A38
:10142000FFF78FF983460C9803913946D0E90223E0
:101430003046FEF723FF5A46039BFFF782F96D1CE7
:10144000BDE707980028A2BF099817B0BDE8F08F44
:10145000616881F000416160099817B04042BDE8C1
:10146000F08FFFE784461598C1F31301C0F30A50CB
:10147000A0F2F5304FEA601800F01F06C6F1200018
:10148000139000200690079041F4801E05206D46C1
:1014900076B1664A08EB00017A4452F8213002EB3B
:1014A0008101B3404A68139922FA01F1194305E01A
:1014B0005F4908EB0002794451F82210A1FB0E2786
:1014C000A1FB0C131A449A4234BF0123002303EBFF
:1014D000070A05EB8003D3E901B70F448F4234BFFD
:1014E0000121002193448B4411B1934502D903E0BB
:1014F000934501D2012100E00021C3E901B7514425
:1015000045F82010011EA0F10100C1DC0298059FE2
:1015100000F10050800F12900298DDE90356800020
:10152000FEF7ADFF834628460D91FFF744F96FF0B3
:101530001D02FEF784FFCDE90E013046FFF73BF9AF
:101540006FF03D02FEF77BFF80468A463846FFF784
:1015500032F96FF05D02FEF772FF074642465346CE
:101560001191FFF74DF8DDE90E23FFF749F85A46D0
:101570000D9BFFF745F800250E465A4628460D9B61
:10158000FFF7DFF8DDE90E23FFF7DBF842465346AD
:10159000FFF7D7F83A46119BFFF7D6F8DFF898A087
:1015A000244A5346FEF76AFE07468846234A244BE0
:1015B00031462846FEF762FE3A464346FFF720F8DA
:1015C000074688464FF0A842534631462846FEF764
:1015D00055FE3A464346FFF713F8159A12F0004FAE
:1015E00004D0129A81F0004152421292C4E90001E3
:1015F000129817B0BDE8F08FFB21E93F7CD902407B
:10160000FB21F93F7370032E8A19A33B000040545D
:101610003163621A61B4D03DFB21394183C8C96D81
:10162000305FE43F0000E03F580F0000D40E0000A0
:10163000B60E0000182D4454FB21F93D3326A611A7
:10164000460B113C2DE9FF4D21F0004807460C46A2
:10165000B8F1795F08DAFFF7BBF8002801BF002076
:10166000324904B0BDE8F08D3A462346104619468B
:10167000FEF704FE054602462D480E460B4606219F
:10168000784400F05DF82A463346FEF7F7FDDDE9C1
:10169000022382468B4638462146FEF7EFFD04467C
:1016A0000F4652465B4628463146FEF7E7FD224686
:1016B0003B46FFF746F807468A464FF0FF3228467A
:1016C0003146FEF7BCFE1B4A90450ADA3A465346BD
:1016D000FFF737F804B00022BDE8F04D134BFFF7D9
:1016E00033B8154A4245A8BFA8F500154FF00004CD
:1016F000B8BF124D22462B46FFF723F80646884610
:1017000022462B4600200949FFF71BF804460D46E8
:101710003A46534630464146FFF713F804B0224696
:101720002B46BDE8F04DFFF70FB800000000F03F7A
:101730008C0C00003333D33F0000E93F0000D23F60
:101740002DE9F0414F1E00EBC7010446D1E900012D
:1017500015461E4637F006020DD02A463346FEF7E0
:101760008DFD7F1E04EBC703D3E90023FEF748FF7E
:1017700037F00602F1D1022F25D0042F13D0062F07
:1017800018BFBDE8F0812A463346FEF777FDD4E95D
:101790000A23FEF735FF2A463346FEF76FFDD4E9EC
:1017A0000823FEF72DFF2A463346FEF767FDD4E9EE
:1017B0000623FEF725FF2A463346FEF75FFDD4E9F0
:1017C0000423FEF71DFF2A463346FEF757FDD4E9F2
:1017D0000223FEF715FF2A463346FEF74FFDD4E9F4
:1017E0000023BDE8F041FEF70BBF00002DE9FF4DDF
:1017F000054621F0004084B00C46B0F1795F0BDA69
:101800002846FFF746FD042808BF00F06FF8284679
:1018100008B02146BDE8F08D2A460B461046FEF77B
:101820002DFD06460F462A462346FEF727FD804635
:1018300026488A4632463B4605217844FFF780FF1A
:1018400083461098029160B3214A224B404651468C
:10185000FEF714FDCDE900015A4640465146029B71
:10186000FEF70CFD82468846DDE906014FF0FF32A7
:10187000FEF7E5FD52464346FEF763FF32463B4620
:10188000FEF7FCFCDDE90623FEF75BFFDDE9002344
:10189000FEF757FF08B02A462346BDE8F04DFEF795
:1018A00053BF0B465A4630463946FEF7E7FC084A16
:1018B000084BFEF7A5FE42465346FEF7DFFC08B094
:1018C0002A462346BDE8F04DFEF79ABECA0B00003B
:1018D000495555555555C5BF0122FEF7B0BD0022EB
:1018E000134610461146FEF73BBD0000024A002099
:1018F0001107FEF7A4BD000001FDFFFF02E008C8CC
:10190000121F08C1002AFAD170477047002001E079
:1019100001C1121F002AFBD1704700000149086075
:10192000704700001800002000B5244B21F0004251
:1019300087B09A42DCBF0022134629DD204B9A4231
:1019400008D140B94FF00100FFF7E8FFFFF7C7FFEC
:1019500007B000BD03DBFFF7BFFF07B000BD02AA61
:10196000FFF7ACFC10F0030104BF0DF1080C9CE87C
:101970000F000DD0012001290ED0022914D00DF145
:10198000080C00909CE80F00FFF730FF07B000BD87
:10199000FFF758FE07B000BD0DF1080C00909CE861
:1019A0000F00FFF723FF05E00DF1080C9CE80F0086
:1019B000FFF748FE07B081F0004100BDFB21E93F81
:1019C0000000F07F2DE9F74F82B007460398012809
:1019D0007EDD00EBD076701002EBC00815460020CB
:1019E0000FE000BF07EB001105EBC002D1E90034A6
:1019F000C2E9003408EBC002D1E90231C2E900318A
:101A0000401CB0EB660FEDDB71103A462846FFF73D
:101A1000D9FF71103A464046FFF7D4FF002466E034
:101A20000398FEF72CFD81468A462046FEF727FDE7
:101A3000324A334BFEF722FC4A465346FEF790FCEF
:101A40008A468146FFF770FFFEF72AFD8346484627
:101A5000514600F045F9FEF723FD80F0004908EB00
:101A6000C4004068019048460199FEF7D5FB8246C4
:101A700058F83400009058460099FEF7CDFB5146C7
:101A8000FEF7C4FB824648460099FEF7C5FB814637
:101A900058460199FEF7C0FB4946FEF765FB8146B3
:101AA000514655F83400FEF75FFB05EBC40B47F8D1
:101AB00034004946DBF80400FEF756FB07EBC4018F
:101AC0004860514655F83400FEF7A0FB014600E09F
:101AD00010E004EB660007EBC00ACAF800104946A4
:101AE000DBF80400FEF792FB641CCAF80400B4EBB8
:101AF000660F95DB05B0BDE8F08F0000182D44544B
:101B0000FB211940084A002150F8213042F82130C9
:101B1000491C2029F8DB20205FF0000142F820104A
:101B2000401C4028FADB70471C01002010B50A4910
:101B30000A4B002250F8224041F82240521C1C60FF
:101B4000202AF7DB2020002241F82020401C1A60C8
:101B50004028F9DB10BD00001C000020040000201C
:101B60002DE9F74F82B00746039801287DDD00EB91
:101B7000D076701002EBC008154600200FE000BFC1
:101B800007EB001105EBC002D1E90034C2E90034D3
:101B900008EBC002D1E90231C2E90031401CB0EBD0
:101BA000660FEDDB71103A462846FFF7D9FF71103A
:101BB0003A464046FFF7D4FF002465E00398FEF75D
:101BC0005EFC81468A462046FEF759FC314A324B7C
:101BD000FEF754FB4A465346FEF7C2FB8A4681464F
:101BE000FFF7A2FEFEF75CFC83464846514600F034
:101BF00077F8FEF755FC814608EBC4004068019079
:101C000048460199FEF708FB824658F834000090D8
:101C100058460099FEF700FB5146FEF7F7FA824658
:101C200048460099FEF7F8FA814658460199FEF7B2
:101C3000F3FA4946FEF798FA8146514655F83400C2
:101C4000FEF792FA05EBC40B47F834004946DBF87F
:101C50000400FEF789FA07EBC4014860514655F8C5
:101C60003400FEF7D3FA014600E010E004EB660012
:101C700007EBC00ACAF800104946DBF80400FEF77B
:101C8000C5FA641CCAF80400B4EB660F96DB05B015
:101C9000BDE8F08F182D4454FB211940ADF5007DAF
:101CA000FEF730FFFFF7A8FAFFF758FAFFF730FA10
:101CB0000024094E094D2746074906EBC4106A4621
:101CC0008039FEF7A7FD0020401C4028FCDB641C87
:101CD0002F600A2CF0DBFEE7001E00080000002049
:101CE00000B5254B21F0004287B09A4203DC002268
:101CF000134600922BE0214B9A4208D140B94FF095
:101D00000100FFF70BFEFFF7EAFD07B000BD03DBA4
:101D1000FFF7E2FD07B000BD02AAFFF7CFFA10F00F
:101D200003014FF001000DD0012914D002291AD06F
:101D30000DF1080C9CE80F00FFF784FC07B081F060
:101D4000004100BD0DF1080C00909CE80F00FFF76A
:101D50004DFD07B000BD0DF1080C9CE80F00FFF72A
:101D600071FC07B000BD0DF1080C00909CE80F005D
:101D7000FFF73CFDE2E70000FB21E93F0000F07FB8
:101D8000526CFFFF83FCFEFF2DA20500B304090087
:101D90008102E3FF3A92D4FFA76B6800FF21950010
:101DA000EB06D7FEBAD163FE9EA9D3021A4DEE030D
:101DB00004F27DF9D67E2AF6A7048B124E880D39DF
:101DC0004E880D39A7048B12D67E2AF604F27DF9CF
:101DD0001A4DEE039EA9D302BAD163FEEB06D7FEDD
:101DE000FF219500A76B68003A92D4FF8102E3FFC0
:101DF000B30409002DA2050083FCFEFF526CFFFF17
:101E000000000000D9AB173F1504C2BD15EF433EDB
:101E10000000803F09B8D53EF304B53E72ADA03F47
:101E2000D7B35D3F5E83EC3EB2E4A83F8D65973F3C
:101E30000000003F8D65973FB2E4A83F5E83EC3E13
:101E4000D7B35D3F72ADA03FF304B53E09B8D53EB0
:101E50000000803F15EF433E1504C2BDD9AB173FCC
:101E600000000080D9AB17BF1504C23D15EF43BE7B
:101E7000000080BF09B8D5BEF304B5BE72ADA0BFE7
:101E8000D7B35DBF5E83ECBEB2E4A8BF8D6597BFDC
:101E9000000000BF8D6597BFB2E4A8BF5E83ECBEB3
:101EA000D7B35DBF72ADA0BFF304B5BE09B8D5BE50
:101EB000000080BF15EF43BE1504C23DD9AB17BF6C
:101EC00000000000D9AB173F1504C2BD15EF433E1B
:101ED0000000803F09B8D53EF304B53E72ADA03F87
:101EE000D7B35D3F5E83EC3EB2E4A83F8D65973F7C
:101EF0000000003F8D65973FB2E4A83F5E83EC3E53
:101F0000D7B35D3F72ADA03FF304B53E09B8D53EEF
:101F10000000803F15EF433E1504C2BDD9AB173F0B
:101F200000000000D9AB17BF1504C23D15EF43BE3A
:101F3000000080BF09B8D5BEF304B5BE72ADA0BF26
:101F4000D7B35DBF5E83ECBEB2E4A8BF8D6597BF1B
:101F5000000000BF8D6597BFB2E4A8BF5E83ECBEF2
:101F6000D7B35DBF72ADA0BFF304B5BE09B8D5BE8F
:101F7000000080BF15EF43BE1504C23DD9AB17BFAB
:101F800000000000D9AB173F1504C2BD15EF433E5A
:101F90000000803F09B8D53EF304B53E72ADA03FC6
:101FA000D7B35D3F5E83EC3EB2E4A83F8D65973FBB
:101FB0000000003F8D65973FB2E4A83F5E83EC3E92
:101FC000D7B35D3F72ADA03FF304B53E09B8D53E2F
:101FD0000000803F15EF433E1504C2BDD9AB173F4B
:101FE00000000000D9AB17BF1504C23D15EF43BE7A
:101FF000000080BF09B8D5BEF304B5BE72ADA0BF66
:10200000D7B35DBF5E83ECBEB2E4A8BF8D6597BF5A
:10201000000000BF8D6597BFB2E4A8BF5E83ECBE31
:10202000D7B35DBF72ADA0BFF304B5BE09B8D5BECE
:10203000000080BF15EF43BE1504C23DD9AB17BFEA
:1020400000000080D9AB173F1504C2BD15EF433E19
:102050000000803F09B8D53EF304B53E72ADA03F05
:10206000D7B35D3F5E83EC3EB2E4A83F8D65973FFA
:102070000000003F8D65973FB2E4A83F5E83EC3ED1
:10208000D7B35D3F72ADA03FF304B53E09B8D53E6E
:102090000000803F15EF433E1504C2BDD9AB173F8A
:1020A00000000080D9AB17BF1504C23D15EF43BE39
:1020B000000080BF09B8D5BEF304B5BE72ADA0BFA5
:1020C000D7B35DBF5E83ECBEB2E4A8BF8D6597BF9A
:1020D000000000BF8D6597BFB2E4A8BF5E83ECBE71
:1020E000D7B35DBF72ADA0BFF304B5BE09B8D5BE0E
:1020F000000080BF15EF43BE1504C23DD9AB17BF2A
:1021000000000000D9AB173F1504C2BD15EF433ED8
:102110000000803F09B8D53EF304B53E72ADA03F44
:10212000D7B35D3F5E83EC3EB2E4A83F8D65973F39
:102130000000003F8D65973FB2E4A83F5E83EC3E10
:10214000D7B35D3F72ADA03FF304B53E09B8D53EAD
:102150000000803F15EF433E1504C2BDD9AB173FC9
:1021600000000000D9AB17BF1504C23D15EF43BEF8
:10217000000080BF09B8D5BEF304B5BE72ADA0BFE4
:10218000D7B35DBF5E83ECBEB2E4A8BF8D6597BFD9
:10219000000000BF8D6597BFB2E4A8BF5E83ECBEB0
:1021A000D7B35DBF72ADA0BFF304B5BE09B8D5BE4D
:1021B000000080BF15EF43BE1504C23DD9AB17BF69
:1021C00000000080D9AB173F1504C2BD15EF433E98
:1021D0000000803F09B8D53EF304B53E72ADA03F84
:1021E000D7B35D3F5E83EC3EB2E4A83F8D65973F79
:1021F0000000003F8D65973FB2E4A83F5E83EC3E50
:10220000D7B35D3F72ADA03FF304B53E09B8D53EEC
:102210000000803F15EF433E1504C2BDD9AB173F08
:1022200000000000D9AB17BF1504C23D15EF43BE37
:10223000000080BF09B8D5BEF304B5BE72ADA0BF23
:10224000D7B35DBF5E83ECBEB2E4A8BF8D6597BF18
:10225000000000BF8D6597BFB2E4A8BF5E83ECBEEF
:10226000D7B35DBF72ADA0BFF304B5BE09B8D5BE8C
:10227000000080BF15EF43BE1504C23DD9AB17BFA8
:1022800000000080D9AB173F1504C2BD15EF433ED7
:102290000000803F09B8D53EF304B53E72ADA03FC3
:1022A000D7B35D3F5E83EC3EB2E4A83F8D65973FB8
:1022B0000000003F8D65973FB2E4A83F5E83EC3E8F
:1022C000D7B35D3F72ADA03FF304B53E09B8D53E2C
:1022D0000000803F15EF433E1504C2BDD9AB173F48
:1022E00000000000D9AB17BF1504C23D15EF43BE77
:1022F000000080BF09B8D5BEF304B5BE72ADA0BF63
:1023000000000000000000000102030406070809A5
:102310004C5555555555A53F7751C1166CC156BF03
:102320009015CB19A001FA3EAD529C804F7E92BE13
:10233000C4B1B4BD9EEE213ED43888BEE9FAA8BD32
:1023400000004054FB21F93F3163621A61B4D03D73
:102350000000601A61B4D03D7370032E8A19A33B4C
:102360000000002E8A19A33BC14920259A837B399E
:1023700000000000000000006E83F9A22915444E01
:10238000D15727FCC0DD34F5999562DB4190433C81
:10239000AB6351FE61C5BBDE3A6E24B7E0D24D425D
:1023A000EA2E49061C92D1091CEB1DFE3EA729B15D
:1023B000F53582E88444BB2E26709CE9417E5FB4EB
:1023C00039D69139F43953838B5F849C3B28F9BD0E
:1023D000FF97F81F0F9805DE8B112FEF1F6D0A5A1C
:1023E000CF7E366DB709CB27663F464F2DEA5F9EFD
:1023F000C7BA27757BF1E5EBF739073DEA92528AB8
:10240000B15FFB6B085D8D1FA6F810111111813FA4
:10241000D561C119A0012ABF7DFEB157E31DC73E9A
:10242000EB9C2B8AE6E55ABE7CD5CF5A3AD9E53DDE
:1024300050240008000000201C000000FC180008C8
:102440006C2400081C000020440A00000C1900083D
:10245000000000000000000001000000100000006B
:0C2460000000000000A24A040000000080
:04000005080000ED02
:00000001FF
