:020000040800F2
:10000000280B0020890100089101000893010008D5
:100010009501000897010008990100080000000000
:100020000000000000000000000000009B0100082C
:100030009D010008000000009F010008A1010008C8
:10004000A3010008A3010008A3010008A301000800
:10005000A3010008A3010008A3010008A3010008F0
:10006000A3010008A3010008A3010008A3010008E0
:10007000A3010008A3010008A3010008A3010008D0
:10008000A3010008A3010008A3010008A3010008C0
:10009000A3010008A3010008A3010008A3010008B0
:1000A000A3010008A3010008A3010008A3010008A0
:1000B000A3010008A3010008A3010008A301000890
:1000C000A3010008A3010008A3010008A301000880
:1000D000A3010008A3010008A3010008A301000870
:1000E000A3010008A3010008A301000800F002F822
:1000F00000F03AF80AA090E8000C82448344AAF188
:100100000107DA4501D100F02FF8AFF2090EBAE885
:100110000F0013F0010F18BFFB1A43F0010318473B
:10012000C00D0000E00D0000103A24BF78C878C16F
:10013000FAD8520724BF30C830C144BF04680C60ED
:10014000704700000023002400250026103A28BF35
:1001500078C1FBD8520728BF30C148BF0B60704739
:100160001FB51FBD10B510BD00F058F81146FFF7C0
:10017000F7FF00F05BF900F076F803B4FFF7F2FF49
:1001800003BC00F07DF8000009488047094800479B
:10019000FEE7FEE7FEE7FEE7FEE7FEE7FEE7FEE737
:1001A000FEE7FEE704480549054A064B7047000094
:1001B00079030008ED00000828050020280B002026
:1001C00028070020280700204FF0000200B5134642
:1001D00094469646203922BFA0E80C50A0E80C5067
:1001E000B1F12001BFF4F7AF090728BFA0E80C5018
:1001F00048BF0CC05DF804EB890028BF40F8042B11
:1002000008BF704748BF20F8022B11F0804F18BF7D
:1002100000F8012B7047704770477047754600F033
:100220002BF8AE4605006946534620F00700854688
:1002300018B020B5FFF7B6FFBDE820404FF000062C
:100240004FF000074FF000084FF0000B21F00701BE
:10025000AC46ACE8C009ACE8C009ACE8C009ACE801
:10026000C0098D46704710B50446AFF300802046A4
:10027000BDE81040FFF781BF004870471400002020
:1002800001491820ABBEFEE726000200704710B5FA
:1002900000F002F810BD00000CB5002001900090A5
:1002A0003348006840F480303149086000BF30486E
:1002B000006800F4003000900198401C0190009804
:1002C00018B90198B0F5A06FF1D12948006800F481
:1002D000003010B10120009001E000200090009853
:1002E000012843D12348006840F0100021490860EC
:1002F0000846006820F0030008600846006840F0E7
:10030000020008601A484068194948600846406879
:1003100048600846406840F480604860084640688D
:1003200020F47C1048600846406840F4E8104860BB
:100330000846006840F08070086000BF0C48006804
:1003400000F000700028F9D00948406820F0030050
:10035000074948600846406840F00200486000BF16
:100360000348406800F00C000828F9D10CBD0000DB
:10037000001002400020024010B51348006840F011
:1003800001001149086008464068104908400E49BC
:100390004860084600680E4908400B490860084656
:1003A000006820F4802008600846406820F4FE00C1
:1003B00048604FF41F008860FFF769FF4FF000604E
:1003C0000449086010BD0000001002400000FFF862
:1003D000FFFFF6FE08ED00E02DE9F84F07468846DE
:1003E00016469946DDF828A000241BE0002516E0FB
:1003F000AAEB0501491E58F8210000F0B7F800905B
:1004000057F8241000F0CAF88346601956F82010F7
:10041000584600F049F8611946F821006D1C554511
:10042000E6D3641C4C45E1D3BDE8F88FADF5D56D3E
:10043000002440F2A46101A8FFF7C6FE6A204FF431
:10044000A07301AA134900901348FFF7C5FF1FE0EE
:10045000002405E0104850F8240010490860641C8E
:10046000B4F5A07FF6DB002405E001A850F82400D5
:100470000B490860641CB4F5D47FF6DD002405E068
:10048000044850F8240007490860641C6A2CF7DB14
:10049000DEE7000020080008C8090008000000206E
:1004A000040000201000002090EA010F48BF81F0F6
:1004B000004100F14681421A3CBF801A89184FEA78
:1004C000D0524FF07F4C1CEA410FA2EBD15318BF22
:1004D0009CEA026F00F03B804FF0004C4CEA002099
:1004E0004CEA012121FA03FC10EB0C0C1ED202F1A4
:1004F000FF325FEA1C2040EBC25038BF70471CF04F
:100500007F0F4FEA400C18BFBCF17F4F38BF7047D8
:10051000C3F12003994008BF20F00100BCF17F4FD8
:1005200038BF7047A0F1C04000F0FFB84FEA3C0070
:10053000000A40EBC25028BF1CF0FF0F4FEA400CEE
:10054000E6D018BFBCF17F4F38BF7047EAE79CEA9E
:10055000026F05D010EA5C0F08BF00F00040704742
:1005600010B500F09CF800BF64FBBE3E10F00041E7
:1005700048BF4042B0FA80F310FA03F2C3F19D0382
:100580000BD051EAC35101EB1220530638BF70471C
:1005900000F1010008BF20F0010070474FF47F0C0C
:1005A0001CEAD0121EBF1CEAD11392EA0C0F93EA88
:1005B0000C0F00F0478090EA010F48BF42F48072B0
:1005C0004FF0004C4CEA00204CEA012102EB030200
:1005D000A0FB0113A2F50002002918BF43F001039C
:1005E0005B0028BF4FEA330342EB22425FEA132C41
:1005F0004CEBC2502EBFBCEB436FB2F57C0F704783
:100600004FEA036CBCF1004F08BF20F00100B2F5C7
:100610007C0F38BF70470BD582F0FF0212F5803F88
:10062000C8BF704700F1C040D8BF00F0004070471D
:1006300000F5000C5FEA4C0C48BF7047B0F1C040B9
:1006400000F073B890EA010F0CEAD11348BF42F4EE
:100650008072624538BF634504D280EA010000F031
:100660000040704710B500F01AF800BF8900013E45
:1006700000F007B800F009B85FEA410C5FEA1C6CB3
:1006800008D080EA010000F050B85FEA400C5FEA51
:100690001C6CF6D14FF00040A0F5800070470EF1C1
:1006A000020E2EF0030E5EF8044B244204D44FEAEF
:1006B0004102B2F17F4F11D84FEA4003B3F17F4FAF
:1006C0000CD80ED14FEAD07CB2F17F4F0CEB4C0C22
:1006D0000CF1020C08BF4CEBD17C04E04FF0080C8D
:1006E00001E04FEAD17C0CEB4C0324FA03F404F054
:1006F0000704B4F1040C06D20EEB840CBDE81040E4
:100700004CF0010C6047DFE80CF0070802024FF0E4
:100710000040A0F5800010BD0846420018BFD2F18D
:10072000807288BF00F0004010BDFF2141EAD05028
:10073000C005704790EA010F48BF81F000413FF5C6
:10074000BAAE421A04D882F00042A0EB0200114473
:100750004FEAD0524FF07F4C1CEA410FA2EBD1532D
:1007600018BF9CEA026F4AD04FF0004C4CEA0020C0
:100770004CEA012121FA03FCB0EB0C0C0FD412F06F
:10078000FE0F36D05FEA4C001DD5001240EBC25080
:1007900038BF70471CF03F0F18BF70470BE0A2F145
:1007A00001025FEA1C2040EBC25038BF70471CF0CA
:1007B0007F0F18BF7047C3F12003994014BF401E3C
:1007C00020F00100704780084FEA122308BF7047ED
:1007D000B0FA80FCA2EB0C02CCF1280C60FA0CF011
:1007E00093EA122F04BF00EBC25070474FEAC37068
:1007F0007047130A5FEADC1008BF7047F6E79CEA0F
:10080000026F04D010EA5C0F08BF0020704710B5DB
:10081000FFF745FF40DFF63E81F0004070470000E3
:100820005E62EAFFCCA9D7FFF44CC5FFEC7BB8FFB2
:100830002B66B6FF6DBEC2FF7A55DEFFAE360600F0
:10084000D39F33004A005D0004EA77008F987B0055
:100850009A7A6300CF1131003C8FECFFE3D0A3FF05
:10086000A0C467FF56A048FF05BD51FF8C1686FF48
:10087000976ADEFF42A849005AE2AF00FC59F70030
:10088000F4A20A01487DDE0095E675006A29E3FFBF
:10089000D44945FF1E00C2FE14507DFEB97E90FE75
:1008A0009A8202FF15EDC3FF3AB0AF00A72691016F
:1008B00007932E02F32E56026218EB01092FEF0068
:1008C000C45987FF41ACF8FD2A519EFCC1AAD9FB4F
:1008D0003376FFFB1C9545FDEB3EB5FF5CB0240372
:1008E0002C153A0795A1770BDBF94E0FC98038120A
:1008F0002346CA132346CA13C9803812DBF94E0FA8
:1009000095A1770B2C153A075CB02403EB3EB5FF9D
:100910001C9545FD3376FFFBC1AAD9FB2A519EFCED
:1009200041ACF8FDC45987FF092FEF006218EB01B5
:10093000F32E560207932E02A72691013AB0AF007C
:1009400015EDC3FF9A8202FFB97E90FE14507DFE22
:100950001E00C2FED44945FF6A29E3FF95E67500F3
:10096000487DDE00F4A20A01FC59F7005AE2AF000C
:1009700042A84900976ADEFF8C1686FF05BD51FF2D
:1009800056A048FFA0C467FFE3D0A3FF3C8FECFF55
:10099000CF1131009A7A63008F987B0004EA7700C8
:1009A0004A005D00D39F3300AE3606007A55DEFF65
:1009B0006DBEC2FF2B66B6FFEC7BB8FFF44CC5FFE3
:1009C000CCA9D7FF5E62EAFF00000000D9AB173F59
:1009D0001504C2BD15EF433E0000803F09B8D53E67
:1009E000F304B53E72ADA03FD7B35D3F5E83EC3EEE
:1009F000B2E4A83F8D65973F0000003F8D65973FAB
:100A0000B2E4A83F5E83EC3ED7B35D3F72ADA03F3A
:100A1000F304B53E09B8D53E0000803F15EF433ED4
:100A20001504C2BDD9AB173F00000080D9AB17BF7A
:100A30001504C23D15EF43BE000080BF09B8D5BE06
:100A4000F304B5BE72ADA0BFD7B35DBF5E83ECBE8D
:100A5000B2E4A8BF8D6597BF000000BF8D6597BF4A
:100A6000B2E4A8BF5E83ECBED7B35DBF72ADA0BFDA
:100A7000F304B5BE09B8D5BE000080BF15EF43BE74
:100A80001504C23DD9AB17BF00000000D9AB173F1A
:100A90001504C2BD15EF433E0000803F09B8D53EA6
:100AA000F304B53E72ADA03FD7B35D3F5E83EC3E2D
:100AB000B2E4A83F8D65973F0000003F8D65973FEA
:100AC000B2E4A83F5E83EC3ED7B35D3F72ADA03F7A
:100AD000F304B53E09B8D53E0000803F15EF433E14
:100AE0001504C2BDD9AB173F00000000D9AB17BF3A
:100AF0001504C23D15EF43BE000080BF09B8D5BE46
:100B0000F304B5BE72ADA0BFD7B35DBF5E83ECBECC
:100B1000B2E4A8BF8D6597BF000000BF8D6597BF89
:100B2000B2E4A8BF5E83ECBED7B35DBF72ADA0BF19
:100B3000F304B5BE09B8D5BE000080BF15EF43BEB3
:100B40001504C23DD9AB17BF00000000D9AB173F59
:100B50001504C2BD15EF433E0000803F09B8D53EE5
:100B6000F304B53E72ADA03FD7B35D3F5E83EC3E6C
:100B7000B2E4A83F8D65973F0000003F8D65973F29
:100B8000B2E4A83F5E83EC3ED7B35D3F72ADA03FB9
:100B9000F304B53E09B8D53E0000803F15EF433E53
:100BA0001504C2BDD9AB173F00000000D9AB17BF79
:100BB0001504C23D15EF43BE000080BF09B8D5BE85
:100BC000F304B5BE72ADA0BFD7B35DBF5E83ECBE0C
:100BD000B2E4A8BF8D6597BF000000BF8D6597BFC9
:100BE000B2E4A8BF5E83ECBED7B35DBF72ADA0BF59
:100BF000F304B5BE09B8D5BE000080BF15EF43BEF3
:100C00001504C23DD9AB17BF00000080D9AB173F18
:100C10001504C2BD15EF433E0000803F09B8D53E24
:100C2000F304B53E72ADA03FD7B35D3F5E83EC3EAB
:100C3000B2E4A83F8D65973F0000003F8D65973F68
:100C4000B2E4A83F5E83EC3ED7B35D3F72ADA03FF8
:100C5000F304B53E09B8D53E0000803F15EF433E92
:100C60001504C2BDD9AB173F00000080D9AB17BF38
:100C70001504C23D15EF43BE000080BF09B8D5BEC4
:100C8000F304B5BE72ADA0BFD7B35DBF5E83ECBE4B
:100C9000B2E4A8BF8D6597BF000000BF8D6597BF08
:100CA000B2E4A8BF5E83ECBED7B35DBF72ADA0BF98
:100CB000F304B5BE09B8D5BE000080BF15EF43BE32
:100CC0001504C23DD9AB17BF00000000D9AB173FD8
:100CD0001504C2BD15EF433E0000803F09B8D53E64
:100CE000F304B53E72ADA03FD7B35D3F5E83EC3EEB
:100CF000B2E4A83F8D65973F0000003F8D65973FA8
:100D0000B2E4A83F5E83EC3ED7B35D3F72ADA03F37
:100D1000F304B53E09B8D53E0000803F15EF433ED1
:100D20001504C2BDD9AB173F00000000D9AB17BFF7
:100D30001504C23D15EF43BE000080BF09B8D5BE03
:100D4000F304B5BE72ADA0BFD7B35DBF5E83ECBE8A
:100D5000B2E4A8BF8D6597BF000000BF8D6597BF47
:100D6000B2E4A8BF5E83ECBED7B35DBF72ADA0BFD7
:100D7000F304B5BE09B8D5BE000080BF15EF43BE71
:100D80001504C23DD9AB17BF00000080D9AB173F97
:100D90001504C2BD15EF433E0000803F09B8D53EA3
:100DA000F304B53E72ADA03FD7B35D3F5E83EC3E2A
:100DB000B2E4A83F8D65973F0000003F8D65973FE7
:100DC000B2E4A83F5E83EC3ED7B35D3F72ADA03F77
:100DD000F304B53E09B8D53E0000803F15EF433E11
:100DE0001504C2BDD9AB173F00000000D9AB17BF37
:100DF0001504C23D15EF43BE000080BF09B8D5BE43
:100E0000F304B5BE72ADA0BFD7B35DBF5E83ECBEC9
:100E1000B2E4A8BF8D6597BF000000BF8D6597BF86
:100E2000B2E4A8BF5E83ECBED7B35DBF72ADA0BF16
:100E3000F304B5BE09B8D5BE000080BF15EF43BEB0
:100E40001504C23DD9AB17BF00000080D9AB173FD6
:100E50001504C2BD15EF433E0000803F09B8D53EE2
:100E6000F304B53E72ADA03FD7B35D3F5E83EC3E69
:100E7000B2E4A83F8D65973F0000003F8D65973F26
:100E8000B2E4A83F5E83EC3ED7B35D3F72ADA03FB6
:100E9000F304B53E09B8D53E0000803F15EF433E50
:100EA0001504C2BDD9AB173F00000000D9AB17BF76
:100EB0001504C23D15EF43BE000080BF09B8D5BE82
:100EC000F304B5BE72ADA0BF0100010140000000F7
:100ED00080000020800400200005002000000000A9
:100EE000000F000800000020140000002801000886
:100EF000140F000814000020140B00004401000827
:100F000000000000000000000000000000000000E1
:040F100000000000DD
:040000050800018965
:00000001FF
